{
  "_format": "hh-sol-artifact-1",
  "contractName": "FreelanceJob",
  "sourceName": "contracts/FreelanceJob.sol",
  "abi": [
    {
      "inputs": [
        {
          "internalType": "address",
          "name": "_freelancer",
          "type": "address"
        },
        {
          "internalType": "uint256[]",
          "name": "_amounts",
          "type": "uint256[]"
        },
        {
          "internalType": "uint256[]",
          "name": "_deadlines",
          "type": "uint256[]"
        },
        {
          "internalType": "address",
          "name": "_daoContract",
          "type": "address"
        }
      ],
      "stateMutability": "payable",
      "type": "constructor"
    },
    {
      "anonymous": false,
      "inputs": [
        {
          "indexed": false,
          "internalType": "address",
          "name": "user",
          "type": "address"
        }
      ],
      "name": "ContractAccepted",
      "type": "event"
    },
    {
      "anonymous": false,
      "inputs": [
        {
          "indexed": false,
          "internalType": "address",
          "name": "triggeredBy",
          "type": "address"
        }
      ],
      "name": "ContractDisputeRaised",
      "type": "event"
    },
    {
      "anonymous": false,
      "inputs": [
        {
          "indexed": false,
          "internalType": "uint256",
          "name": "paidToFreelancer",
          "type": "uint256"
        },
        {
          "indexed": false,
          "internalType": "uint256",
          "name": "refundedToClient",
          "type": "uint256"
        }
      ],
      "name": "ContractResolved",
      "type": "event"
    },
    {
      "anonymous": false,
      "inputs": [
        {
          "indexed": false,
          "internalType": "uint256",
          "name": "proposalId",
          "type": "uint256"
        }
      ],
      "name": "DisputeProposalLinked",
      "type": "event"
    },
    {
      "anonymous": false,
      "inputs": [
        {
          "indexed": true,
          "internalType": "uint256",
          "name": "id",
          "type": "uint256"
        }
      ],
      "name": "MilestoneApproved",
      "type": "event"
    },
    {
      "anonymous": false,
      "inputs": [
        {
          "indexed": true,
          "internalType": "uint256",
          "name": "id",
          "type": "uint256"
        },
        {
          "indexed": false,
          "internalType": "address",
          "name": "triggeredBy",
          "type": "address"
        }
      ],
      "name": "MilestoneDisputed",
      "type": "event"
    },
    {
      "anonymous": false,
      "inputs": [
        {
          "indexed": true,
          "internalType": "uint256",
          "name": "id",
          "type": "uint256"
        },
        {
          "indexed": false,
          "internalType": "uint256",
          "name": "amount",
          "type": "uint256"
        }
      ],
      "name": "MilestonePaid",
      "type": "event"
    },
    {
      "anonymous": false,
      "inputs": [
        {
          "indexed": true,
          "internalType": "uint256",
          "name": "id",
          "type": "uint256"
        },
        {
          "indexed": false,
          "internalType": "string",
          "name": "ipfsCID",
          "type": "string"
        }
      ],
      "name": "MilestoneSubmitted",
      "type": "event"
    },
    {
      "inputs": [],
      "name": "acceptContract",
      "outputs": [],
      "stateMutability": "nonpayable",
      "type": "function"
    },
    {
      "inputs": [
        {
          "internalType": "uint256",
          "name": "id",
          "type": "uint256"
        }
      ],
      "name": "approveMilestone",
      "outputs": [],
      "stateMutability": "nonpayable",
      "type": "function"
    },
    {
      "inputs": [],
      "name": "client",
      "outputs": [
        {
          "internalType": "address",
          "name": "",
          "type": "address"
        }
      ],
      "stateMutability": "view",
      "type": "function"
    },
    {
      "inputs": [],
      "name": "clientAccepted",
      "outputs": [
        {
          "internalType": "bool",
          "name": "",
          "type": "bool"
        }
      ],
      "stateMutability": "view",
      "type": "function"
    },
    {
      "inputs": [],
      "name": "contractActive",
      "outputs": [
        {
          "internalType": "bool",
          "name": "",
          "type": "bool"
        }
      ],
      "stateMutability": "view",
      "type": "function"
    },
    {
      "inputs": [],
      "name": "contractCancelled",
      "outputs": [
        {
          "internalType": "bool",
          "name": "",
          "type": "bool"
        }
      ],
      "stateMutability": "view",
      "type": "function"
    },
    {
      "inputs": [],
      "name": "contractDispute",
      "outputs": [
        {
          "internalType": "uint256",
          "name": "proposalId",
          "type": "uint256"
        },
        {
          "internalType": "bool",
          "name": "resolved",
          "type": "bool"
        }
      ],
      "stateMutability": "view",
      "type": "function"
    },
    {
      "inputs": [],
      "name": "daoContract",
      "outputs": [
        {
          "internalType": "address",
          "name": "",
          "type": "address"
        }
      ],
      "stateMutability": "view",
      "type": "function"
    },
    {
      "inputs": [
        {
          "internalType": "uint256",
          "name": "_proposalId",
          "type": "uint256"
        }
      ],
      "name": "disputeContract",
      "outputs": [],
      "stateMutability": "nonpayable",
      "type": "function"
    },
    {
      "inputs": [],
      "name": "disputeRaised",
      "outputs": [
        {
          "internalType": "bool",
          "name": "",
          "type": "bool"
        }
      ],
      "stateMutability": "view",
      "type": "function"
    },
    {
      "inputs": [],
      "name": "freelancer",
      "outputs": [
        {
          "internalType": "address",
          "name": "",
          "type": "address"
        }
      ],
      "stateMutability": "view",
      "type": "function"
    },
    {
      "inputs": [],
      "name": "freelancerAccepted",
      "outputs": [
        {
          "internalType": "bool",
          "name": "",
          "type": "bool"
        }
      ],
      "stateMutability": "view",
      "type": "function"
    },
    {
      "inputs": [],
      "name": "getEscrowBalance",
      "outputs": [
        {
          "internalType": "uint256",
          "name": "",
          "type": "uint256"
        }
      ],
      "stateMutability": "view",
      "type": "function"
    },
    {
      "inputs": [
        {
          "internalType": "uint256",
          "name": "id",
          "type": "uint256"
        }
      ],
      "name": "getMilestone",
      "outputs": [
        {
          "internalType": "uint256",
          "name": "amount",
          "type": "uint256"
        },
        {
          "internalType": "uint256",
          "name": "deadline",
          "type": "uint256"
        },
        {
          "internalType": "string",
          "name": "ipfsCID",
          "type": "string"
        },
        {
          "internalType": "enum FreelanceJob.MilestoneStatus",
          "name": "status",
          "type": "uint8"
        }
      ],
      "stateMutability": "view",
      "type": "function"
    },
    {
      "inputs": [],
      "name": "milestoneCount",
      "outputs": [
        {
          "internalType": "uint256",
          "name": "",
          "type": "uint256"
        }
      ],
      "stateMutability": "view",
      "type": "function"
    },
    {
      "inputs": [
        {
          "internalType": "uint256",
          "name": "",
          "type": "uint256"
        }
      ],
      "name": "milestones",
      "outputs": [
        {
          "internalType": "uint256",
          "name": "amount",
          "type": "uint256"
        },
        {
          "internalType": "uint256",
          "name": "deadline",
          "type": "uint256"
        },
        {
          "internalType": "string",
          "name": "ipfsCID",
          "type": "string"
        },
        {
          "internalType": "enum FreelanceJob.MilestoneStatus",
          "name": "status",
          "type": "uint8"
        }
      ],
      "stateMutability": "view",
      "type": "function"
    },
    {
      "inputs": [
        {
          "internalType": "uint256",
          "name": "id",
          "type": "uint256"
        }
      ],
      "name": "raiseDispute",
      "outputs": [],
      "stateMutability": "nonpayable",
      "type": "function"
    },
    {
      "inputs": [
        {
          "internalType": "uint256",
          "name": "id",
          "type": "uint256"
        }
      ],
      "name": "releaseMilestonePayment",
      "outputs": [],
      "stateMutability": "nonpayable",
      "type": "function"
    },
    {
      "inputs": [
        {
          "internalType": "uint256",
          "name": "amountToFreelancer",
          "type": "uint256"
        },
        {
          "internalType": "uint256",
          "name": "amountToClient",
          "type": "uint256"
        }
      ],
      "name": "resolveDispute",
      "outputs": [],
      "stateMutability": "nonpayable",
      "type": "function"
    },
    {
      "inputs": [
        {
          "internalType": "uint256",
          "name": "id",
          "type": "uint256"
        },
        {
          "internalType": "string",
          "name": "_cid",
          "type": "string"
        }
      ],
      "name": "submitMilestone",
      "outputs": [],
      "stateMutability": "nonpayable",
      "type": "function"
    },
    {
      "inputs": [],
      "name": "totalMilestones",
      "outputs": [
        {
          "internalType": "uint256",
          "name": "",
          "type": "uint256"
        }
      ],
      "stateMutability": "view",
      "type": "function"
    }
  ],
  "bytecode": "0x60806040526040516134f13803806134f1833981810160405281019061002591906105e3565b600073ffffffffffffffffffffffffffffffffffffffff168473ffffffffffffffffffffffffffffffffffffffff1603610094576040517f08c379a000000000000000000000000000000000000000000000000000000000815260040161008b906106df565b60405180910390fd5b600073ffffffffffffffffffffffffffffffffffffffff168173ffffffffffffffffffffffffffffffffffffffff1603610103576040517f08c379a00000000000000000000000000000000000000000000000000000000081526004016100fa9061074b565b60405180910390fd5b8151835114610147576040517f08c379a000000000000000000000000000000000000000000000000000000000815260040161013e906107b7565b60405180910390fd5b600083511161018b576040517f08c379a000000000000000000000000000000000000000000000000000000000815260040161018290610823565b60405180910390fd5b336000806101000a81548173ffffffffffffffffffffffffffffffffffffffff021916908373ffffffffffffffffffffffffffffffffffffffff16021790555083600160006101000a81548173ffffffffffffffffffffffffffffffffffffffff021916908373ffffffffffffffffffffffffffffffffffffffff16021790555080600260006101000a81548173ffffffffffffffffffffffffffffffffffffffff021916908373ffffffffffffffffffffffffffffffffffffffff1602179055506000805b845181101561038d576005604051806080016040528087848151811061027a57610279610843565b5b6020026020010151815260200186848151811061029a57610299610843565b5b60200260200101518152602001604051806020016040528060008152508152602001600060048111156102d0576102cf610872565b5b8152509080600181540180825580915050600190039060005260206000209060040201600090919091909150600082015181600001556020820151816001015560408201518160020190816103259190610ab8565b5060608201518160030160006101000a81548160ff0219169083600481111561035157610350610872565b5b0217905550505084818151811061036b5761036a610843565b5b60200260200101518261037e9190610bb9565b91508080600101915050610251565b5083516003819055508034146103d8576040517f08c379a00000000000000000000000000000000000000000000000000000000081526004016103cf90610c39565b60405180910390fd5b5050505050610c59565b6000604051905090565b600080fd5b600080fd5b600073ffffffffffffffffffffffffffffffffffffffff82169050919050565b6000610421826103f6565b9050919050565b61043181610416565b811461043c57600080fd5b50565b60008151905061044e81610428565b92915050565b600080fd5b6000601f19601f8301169050919050565b7f4e487b7100000000000000000000000000000000000000000000000000000000600052604160045260246000fd5b6104a282610459565b810181811067ffffffffffffffff821117156104c1576104c061046a565b5b80604052505050565b60006104d46103e2565b90506104e08282610499565b919050565b600067ffffffffffffffff821115610500576104ff61046a565b5b602082029050602081019050919050565b600080fd5b6000819050919050565b61052981610516565b811461053457600080fd5b50565b60008151905061054681610520565b92915050565b600061055f61055a846104e5565b6104ca565b9050808382526020820190506020840283018581111561058257610581610511565b5b835b818110156105ab57806105978882610537565b845260208401935050602081019050610584565b5050509392505050565b600082601f8301126105ca576105c9610454565b5b81516105da84826020860161054c565b91505092915050565b600080600080608085870312156105fd576105fc6103ec565b5b600061060b8782880161043f565b945050602085015167ffffffffffffffff81111561062c5761062b6103f1565b5b610638878288016105b5565b935050604085015167ffffffffffffffff811115610659576106586103f1565b5b610665878288016105b5565b92505060606106768782880161043f565b91505092959194509250565b600082825260208201905092915050565b7f496e76616c696420667265656c616e6365720000000000000000000000000000600082015250565b60006106c9601283610682565b91506106d482610693565b602082019050919050565b600060208201905081810360008301526106f8816106bc565b9050919050565b7f496e76616c69642044414f000000000000000000000000000000000000000000600082015250565b6000610735600b83610682565b9150610740826106ff565b602082019050919050565b6000602082019050818103600083015261076481610728565b9050919050565b7f4d69736d61746368656420617272617973000000000000000000000000000000600082015250565b60006107a1601183610682565b91506107ac8261076b565b602082019050919050565b600060208201905081810360008301526107d081610794565b9050919050565b7f4e6f206d696c6573746f6e657300000000000000000000000000000000000000600082015250565b600061080d600d83610682565b9150610818826107d7565b602082019050919050565b6000602082019050818103600083015261083c81610800565b9050919050565b7f4e487b7100000000000000000000000000000000000000000000000000000000600052603260045260246000fd5b7f4e487b7100000000000000000000000000000000000000000000000000000000600052602160045260246000fd5b600081519050919050565b7f4e487b7100000000000000000000000000000000000000000000000000000000600052602260045260246000fd5b600060028204905060018216806108f357607f821691505b602082108103610906576109056108ac565b5b50919050565b60008190508160005260206000209050919050565b60006020601f8301049050919050565b600082821b905092915050565b60006008830261096e7fffffffffffffffffffffffffffffffffffffffffffffffffffffffffffffffff82610931565b6109788683610931565b95508019841693508086168417925050509392505050565b6000819050919050565b60006109b56109b06109ab84610516565b610990565b610516565b9050919050565b6000819050919050565b6109cf8361099a565b6109e36109db826109bc565b84845461093e565b825550505050565b600090565b6109f86109eb565b610a038184846109c6565b505050565b5b81811015610a2757610a1c6000826109f0565b600181019050610a09565b5050565b601f821115610a6c57610a3d8161090c565b610a4684610921565b81016020851015610a55578190505b610a69610a6185610921565b830182610a08565b50505b505050565b600082821c905092915050565b6000610a8f60001984600802610a71565b1980831691505092915050565b6000610aa88383610a7e565b9150826002028217905092915050565b610ac1826108a1565b67ffffffffffffffff811115610ada57610ad961046a565b5b610ae482546108db565b610aef828285610a2b565b600060209050601f831160018114610b225760008415610b10578287015190505b610b1a8582610a9c565b865550610b82565b601f198416610b308661090c565b60005b82811015610b5857848901518255600182019150602085019450602081019050610b33565b86831015610b755784890151610b71601f891682610a7e565b8355505b6001600288020188555050505b505050505050565b7f4e487b7100000000000000000000000000000000000000000000000000000000600052601160045260246000fd5b6000610bc482610516565b9150610bcf83610516565b9250828201905080821115610be757610be6610b8a565b5b92915050565b7f496e636f727265637420657363726f7700000000000000000000000000000000600082015250565b6000610c23601083610682565b9150610c2e82610bed565b602082019050919050565b60006020820190508181036000830152610c5281610c16565b9050919050565b61288980610c686000396000f3fe608060405234801561001057600080fd5b50600436106101365760003560e01c8063a37dda2c116100b8578063bdc84ac31161007c578063bdc84ac3146102f9578063c438b40f14610315578063c56e610e14610331578063cd0c15bf1461034f578063e289fcb61461036b578063e89e4ed61461038957610136565b8063a37dda2c14610264578063a5c1674e14610282578063a729c92f1461029e578063ad7eec76146102bc578063bbbd5cd4146102db57610136565b8063476a119b116100ff578063476a119b146101e65780634a7ffcbc1461020257806357cae73314610220578063619d26711461023e578063883f09151461024857610136565b80624422eb1461013b5780630681ca5514610159578063109e94cf146101775780632442e1cb1461019557806339a4e2d2146101c8575b600080fd5b6101436103bc565b6040516101509190611973565b60405180910390f35b6101616103cf565b60405161016e91906119a7565b60405180910390f35b61017f6103dc565b60405161018c9190611a03565b60405180910390f35b6101af60048036038101906101aa9190611a5e565b610400565b6040516101bf9493929190611b92565b60405180910390f35b6101d0610584565b6040516101dd91906119a7565b60405180910390f35b61020060048036038101906101fb9190611d13565b61058a565b005b61020a61081a565b6040516102179190611a03565b60405180910390f35b610228610840565b6040516102359190611973565b60405180910390f35b610246610853565b005b610262600480360381019061025d9190611a5e565b610a4a565b005b61026c610c9a565b6040516102799190611a03565b60405180910390f35b61029c60048036038101906102979190611a5e565b610cc0565b005b6102a6610fd3565b6040516102b39190611973565b60405180910390f35b6102c4610fe6565b6040516102d2929190611d6f565b60405180910390f35b6102e3611005565b6040516102f09190611973565b60405180910390f35b610313600480360381019061030e9190611d98565b611018565b005b61032f600480360381019061032a9190611a5e565b61130c565b005b61033961157c565b60405161034691906119a7565b60405180910390f35b61036960048036038101906103649190611a5e565b611584565b005b610373611870565b6040516103809190611973565b60405180910390f35b6103a3600480360381019061039e9190611a5e565b611883565b6040516103b39493929190611b92565b60405180910390f35b600460009054906101000a900460ff1681565b6000600580549050905090565b60008054906101000a900473ffffffffffffffffffffffffffffffffffffffff1681565b60008060606000600580549050851061044e576040517f08c379a000000000000000000000000000000000000000000000000000000000815260040161044590611e24565b60405180910390fd5b60006005868154811061046457610463611e44565b5b906000526020600020906004020160405180608001604052908160008201548152602001600182015481526020016002820180546104a190611ea2565b80601f01602080910402602001604051908101604052809291908181526020018280546104cd90611ea2565b801561051a5780601f106104ef5761010080835404028352916020019161051a565b820191906000526020600020905b8154815290600101906020018083116104fd57829003601f168201915b505050505081526020016003820160009054906101000a900460ff16600481111561054857610547611b1b565b5b600481111561055a57610559611b1b565b5b81525050905080600001518160200151826040015183606001519450945094509450509193509193565b60035481565b600160009054906101000a900473ffffffffffffffffffffffffffffffffffffffff1673ffffffffffffffffffffffffffffffffffffffff163373ffffffffffffffffffffffffffffffffffffffff161461061a576040517f08c379a000000000000000000000000000000000000000000000000000000000815260040161061190611f1f565b60405180910390fd5b600260169054906101000a900460ff16610669576040517f08c379a000000000000000000000000000000000000000000000000000000000815260040161066090611f8b565b60405180910390fd5b600260179054906101000a900460ff16156106b9576040517f08c379a00000000000000000000000000000000000000000000000000000000081526004016106b090611ff7565b60405180910390fd5b6005805490508210610700576040517f08c379a00000000000000000000000000000000000000000000000000000000081526004016106f790611e24565b60405180910390fd5b60006005838154811061071657610715611e44565b5b906000526020600020906004020190506000600481111561073a57610739611b1b565b5b8160030160009054906101000a900460ff16600481111561075e5761075d611b1b565b5b1461079e576040517f08c379a000000000000000000000000000000000000000000000000000000000815260040161079590612063565b60405180910390fd5b818160020190816107af919061222f565b5060018160030160006101000a81548160ff021916908360048111156107d8576107d7611b1b565b5b0217905550827f6c4ed5f8d6ddf265b243b3e007707e3374049d833dfc7791c66c06579aa10ff98360405161080d9190612301565b60405180910390a2505050565b600260009054906101000a900473ffffffffffffffffffffffffffffffffffffffff1681565b600260159054906101000a900460ff1681565b60008054906101000a900473ffffffffffffffffffffffffffffffffffffffff1673ffffffffffffffffffffffffffffffffffffffff163373ffffffffffffffffffffffffffffffffffffffff1614806108fa5750600160009054906101000a900473ffffffffffffffffffffffffffffffffffffffff1673ffffffffffffffffffffffffffffffffffffffff163373ffffffffffffffffffffffffffffffffffffffff16145b610939576040517f08c379a00000000000000000000000000000000000000000000000000000000081526004016109309061236f565b60405180910390fd5b60008054906101000a900473ffffffffffffffffffffffffffffffffffffffff1673ffffffffffffffffffffffffffffffffffffffff163373ffffffffffffffffffffffffffffffffffffffff16036109ac576001600260146101000a81548160ff0219169083151502179055506109c8565b6001600260156101000a81548160ff0219169083151502179055505b7f49af38404bac216b516e493cd4d5ead95274db4c767aab7ae2f466117a5e29c0336040516109f79190611a03565b60405180910390a1600260149054906101000a900460ff168015610a275750600260159054906101000a900460ff165b15610a48576001600260166101000a81548160ff0219169083151502179055505b565b60008054906101000a900473ffffffffffffffffffffffffffffffffffffffff1673ffffffffffffffffffffffffffffffffffffffff163373ffffffffffffffffffffffffffffffffffffffff1614610ad8576040517f08c379a0000000000000000000000000000000000000000000000000000000008152600401610acf906123db565b60405180910390fd5b600260169054906101000a900460ff16610b27576040517f08c379a0000000000000000000000000000000000000000000000000000000008152600401610b1e90611f8b565b60405180910390fd5b600260179054906101000a900460ff1615610b77576040517f08c379a0000000000000000000000000000000000000000000000000000000008152600401610b6e90611ff7565b60405180910390fd5b600460009054906101000a900460ff1615610bc7576040517f08c379a0000000000000000000000000000000000000000000000000000000008152600401610bbe90612447565b60405180910390fd5b6001600460006101000a81548160ff02191690831515021790555060405180604001604052808281526020016000151581525060066000820151816000015560208201518160010160006101000a81548160ff0219169083151502179055509050507f5ee2bc9d7feeef45406179c0c257588b78c7439f5ba81eb32b76b464030ed2ba33604051610c589190611a03565b60405180910390a17fd9bc9fa2f1d398db336d138ecec63371a7d354872f1233986fb44403a0125bd781604051610c8f91906119a7565b60405180910390a150565b600160009054906101000a900473ffffffffffffffffffffffffffffffffffffffff1681565b600260169054906101000a900460ff16610d0f576040517f08c379a0000000000000000000000000000000000000000000000000000000008152600401610d0690611f8b565b60405180910390fd5b600260179054906101000a900460ff1615610d5f576040517f08c379a0000000000000000000000000000000000000000000000000000000008152600401610d5690611ff7565b60405180910390fd5b6005805490508110610da6576040517f08c379a0000000000000000000000000000000000000000000000000000000008152600401610d9d90611e24565b60405180910390fd5b60008054906101000a900473ffffffffffffffffffffffffffffffffffffffff1673ffffffffffffffffffffffffffffffffffffffff163373ffffffffffffffffffffffffffffffffffffffff161480610e4d5750600160009054906101000a900473ffffffffffffffffffffffffffffffffffffffff1673ffffffffffffffffffffffffffffffffffffffff163373ffffffffffffffffffffffffffffffffffffffff16145b610e8c576040517f08c379a0000000000000000000000000000000000000000000000000000000008152600401610e83906124b3565b60405180910390fd5b600060058281548110610ea257610ea1611e44565b5b9060005260206000209060040201905060016004811115610ec657610ec5611b1b565b5b8160030160009054906101000a900460ff166004811115610eea57610ee9611b1b565b5b1480610f2b575060026004811115610f0557610f04611b1b565b5b8160030160009054906101000a900460ff166004811115610f2957610f28611b1b565b5b145b610f6a576040517f08c379a0000000000000000000000000000000000000000000000000000000008152600401610f619061251f565b60405180910390fd5b60048160030160006101000a81548160ff02191690836004811115610f9257610f91611b1b565b5b0217905550817f7f6241b75cbcd4b8285191647d52aaab3d20b6e419f5c8e511f1d05ac3eae9b833604051610fc79190611a03565b60405180910390a25050565b600260149054906101000a900460ff1681565b60068060000154908060010160009054906101000a900460ff16905082565b600260179054906101000a900460ff1681565b600260009054906101000a900473ffffffffffffffffffffffffffffffffffffffff1673ffffffffffffffffffffffffffffffffffffffff163373ffffffffffffffffffffffffffffffffffffffff16146110a8576040517f08c379a000000000000000000000000000000000000000000000000000000000815260040161109f9061258b565b60405180910390fd5b600460009054906101000a900460ff166110f7576040517f08c379a00000000000000000000000000000000000000000000000000000000081526004016110ee906125f7565b60405180910390fd5b600660010160009054906101000a900460ff161561114a576040517f08c379a000000000000000000000000000000000000000000000000000000000815260040161114190612663565b60405180910390fd5b47818361115791906126b2565b14611197576040517f08c379a000000000000000000000000000000000000000000000000000000000815260040161118e90612732565b60405180910390fd5b600082111561120a57600160009054906101000a900473ffffffffffffffffffffffffffffffffffffffff1673ffffffffffffffffffffffffffffffffffffffff166108fc839081150290604051600060405180830381858888f19350505050158015611208573d6000803e3d6000fd5b505b600081111561127b5760008054906101000a900473ffffffffffffffffffffffffffffffffffffffff1673ffffffffffffffffffffffffffffffffffffffff166108fc829081150290604051600060405180830381858888f19350505050158015611279573d6000803e3d6000fd5b505b6000600260166101000a81548160ff0219169083151502179055506001600260176101000a81548160ff0219169083151502179055506001600660010160006101000a81548160ff0219169083151502179055507f1095510f18b026716879caf5f2cf224fe64cede6dfb83380fc5ee2a0fdf5ee968282604051611300929190612752565b60405180910390a15050565b60008054906101000a900473ffffffffffffffffffffffffffffffffffffffff1673ffffffffffffffffffffffffffffffffffffffff163373ffffffffffffffffffffffffffffffffffffffff161461139a576040517f08c379a0000000000000000000000000000000000000000000000000000000008152600401611391906123db565b60405180910390fd5b600260169054906101000a900460ff166113e9576040517f08c379a00000000000000000000000000000000000000000000000000000000081526004016113e090611f8b565b60405180910390fd5b600260179054906101000a900460ff1615611439576040517f08c379a000000000000000000000000000000000000000000000000000000000815260040161143090611ff7565b60405180910390fd5b6005805490508110611480576040517f08c379a000000000000000000000000000000000000000000000000000000000815260040161147790611e24565b60405180910390fd5b60006005828154811061149657611495611e44565b5b90600052602060002090600402019050600160048111156114ba576114b9611b1b565b5b8160030160009054906101000a900460ff1660048111156114de576114dd611b1b565b5b1461151e576040517f08c379a0000000000000000000000000000000000000000000000000000000008152600401611515906127c7565b60405180910390fd5b60028160030160006101000a81548160ff0219169083600481111561154657611545611b1b565b5b0217905550817f0adffe31a62a9e7e5068bdd6f839470d57dd0e18fac8a8d525196283eb9b392a60405160405180910390a25050565b600047905090565b60008054906101000a900473ffffffffffffffffffffffffffffffffffffffff1673ffffffffffffffffffffffffffffffffffffffff163373ffffffffffffffffffffffffffffffffffffffff1614611612576040517f08c379a0000000000000000000000000000000000000000000000000000000008152600401611609906123db565b60405180910390fd5b600260169054906101000a900460ff16611661576040517f08c379a000000000000000000000000000000000000000000000000000000000815260040161165890611f8b565b60405180910390fd5b600260179054906101000a900460ff16156116b1576040517f08c379a00000000000000000000000000000000000000000000000000000000081526004016116a890611ff7565b60405180910390fd5b60058054905081106116f8576040517f08c379a00000000000000000000000000000000000000000000000000000000081526004016116ef90611e24565b60405180910390fd5b60006005828154811061170e5761170d611e44565b5b906000526020600020906004020190506002600481111561173257611731611b1b565b5b8160030160009054906101000a900460ff16600481111561175657611755611b1b565b5b14611796576040517f08c379a000000000000000000000000000000000000000000000000000000000815260040161178d90612833565b60405180910390fd5b60038160030160006101000a81548160ff021916908360048111156117be576117bd611b1b565b5b0217905550600160009054906101000a900473ffffffffffffffffffffffffffffffffffffffff1673ffffffffffffffffffffffffffffffffffffffff166108fc82600001549081150290604051600060405180830381858888f1935050505015801561182f573d6000803e3d6000fd5b50817f3af368126e502abc57fe61217a2e2ffc37e0753a9bc218ab9976a49a996e4449826000015460405161186491906119a7565b60405180910390a25050565b600260169054906101000a900460ff1681565b6005818154811061189357600080fd5b90600052602060002090600402016000915090508060000154908060010154908060020180546118c290611ea2565b80601f01602080910402602001604051908101604052809291908181526020018280546118ee90611ea2565b801561193b5780601f106119105761010080835404028352916020019161193b565b820191906000526020600020905b81548152906001019060200180831161191e57829003601f168201915b5050505050908060030160009054906101000a900460ff16905084565b60008115159050919050565b61196d81611958565b82525050565b60006020820190506119886000830184611964565b92915050565b6000819050919050565b6119a18161198e565b82525050565b60006020820190506119bc6000830184611998565b92915050565b600073ffffffffffffffffffffffffffffffffffffffff82169050919050565b60006119ed826119c2565b9050919050565b6119fd816119e2565b82525050565b6000602082019050611a1860008301846119f4565b92915050565b6000604051905090565b600080fd5b600080fd5b611a3b8161198e565b8114611a4657600080fd5b50565b600081359050611a5881611a32565b92915050565b600060208284031215611a7457611a73611a28565b5b6000611a8284828501611a49565b91505092915050565b600081519050919050565b600082825260208201905092915050565b60005b83811015611ac5578082015181840152602081019050611aaa565b60008484015250505050565b6000601f19601f8301169050919050565b6000611aed82611a8b565b611af78185611a96565b9350611b07818560208601611aa7565b611b1081611ad1565b840191505092915050565b7f4e487b7100000000000000000000000000000000000000000000000000000000600052602160045260246000fd5b60058110611b5b57611b5a611b1b565b5b50565b6000819050611b6c82611b4a565b919050565b6000611b7c82611b5e565b9050919050565b611b8c81611b71565b82525050565b6000608082019050611ba76000830187611998565b611bb46020830186611998565b8181036040830152611bc68185611ae2565b9050611bd56060830184611b83565b95945050505050565b600080fd5b600080fd5b7f4e487b7100000000000000000000000000000000000000000000000000000000600052604160045260246000fd5b611c2082611ad1565b810181811067ffffffffffffffff82111715611c3f57611c3e611be8565b5b80604052505050565b6000611c52611a1e565b9050611c5e8282611c17565b919050565b600067ffffffffffffffff821115611c7e57611c7d611be8565b5b611c8782611ad1565b9050602081019050919050565b82818337600083830152505050565b6000611cb6611cb184611c63565b611c48565b905082815260208101848484011115611cd257611cd1611be3565b5b611cdd848285611c94565b509392505050565b600082601f830112611cfa57611cf9611bde565b5b8135611d0a848260208601611ca3565b91505092915050565b60008060408385031215611d2a57611d29611a28565b5b6000611d3885828601611a49565b925050602083013567ffffffffffffffff811115611d5957611d58611a2d565b5b611d6585828601611ce5565b9150509250929050565b6000604082019050611d846000830185611998565b611d916020830184611964565b9392505050565b60008060408385031215611daf57611dae611a28565b5b6000611dbd85828601611a49565b9250506020611dce85828601611a49565b9150509250929050565b7f496e76616c696420494400000000000000000000000000000000000000000000600082015250565b6000611e0e600a83611a96565b9150611e1982611dd8565b602082019050919050565b60006020820190508181036000830152611e3d81611e01565b9050919050565b7f4e487b7100000000000000000000000000000000000000000000000000000000600052603260045260246000fd5b7f4e487b7100000000000000000000000000000000000000000000000000000000600052602260045260246000fd5b60006002820490506001821680611eba57607f821691505b602082108103611ecd57611ecc611e73565b5b50919050565b7f4f6e6c7920667265656c616e6365720000000000000000000000000000000000600082015250565b6000611f09600f83611a96565b9150611f1482611ed3565b602082019050919050565b60006020820190508181036000830152611f3881611efc565b9050919050565b7f436f6e7472616374206e6f742061637469766500000000000000000000000000600082015250565b6000611f75601383611a96565b9150611f8082611f3f565b602082019050919050565b60006020820190508181036000830152611fa481611f68565b9050919050565b7f436f6e74726163742063616e63656c6c65640000000000000000000000000000600082015250565b6000611fe1601283611a96565b9150611fec82611fab565b602082019050919050565b6000602082019050818103600083015261201081611fd4565b9050919050565b7f416c7265616479207375626d6974746564000000000000000000000000000000600082015250565b600061204d601183611a96565b915061205882612017565b602082019050919050565b6000602082019050818103600083015261207c81612040565b9050919050565b60008190508160005260206000209050919050565b60006020601f8301049050919050565b600082821b905092915050565b6000600883026120e57fffffffffffffffffffffffffffffffffffffffffffffffffffffffffffffffff826120a8565b6120ef86836120a8565b95508019841693508086168417925050509392505050565b6000819050919050565b600061212c6121276121228461198e565b612107565b61198e565b9050919050565b6000819050919050565b61214683612111565b61215a61215282612133565b8484546120b5565b825550505050565b600090565b61216f612162565b61217a81848461213d565b505050565b5b8181101561219e57612193600082612167565b600181019050612180565b5050565b601f8211156121e3576121b481612083565b6121bd84612098565b810160208510156121cc578190505b6121e06121d885612098565b83018261217f565b50505b505050565b600082821c905092915050565b6000612206600019846008026121e8565b1980831691505092915050565b600061221f83836121f5565b9150826002028217905092915050565b61223882611a8b565b67ffffffffffffffff81111561225157612250611be8565b5b61225b8254611ea2565b6122668282856121a2565b600060209050601f8311600181146122995760008415612287578287015190505b6122918582612213565b8655506122f9565b601f1984166122a786612083565b60005b828110156122cf578489015182556001820191506020850194506020810190506122aa565b868310156122ec57848901516122e8601f8916826121f5565b8355505b6001600288020188555050505b505050505050565b6000602082019050818103600083015261231b8184611ae2565b905092915050565b7f4e6f742061207061727479000000000000000000000000000000000000000000600082015250565b6000612359600b83611a96565b915061236482612323565b602082019050919050565b600060208201905081810360008301526123888161234c565b9050919050565b7f4f6e6c7920636c69656e74000000000000000000000000000000000000000000600082015250565b60006123c5600b83611a96565b91506123d08261238f565b602082019050919050565b600060208201905081810360008301526123f4816123b8565b9050919050565b7f416c726561647920646973707574656400000000000000000000000000000000600082015250565b6000612431601083611a96565b915061243c826123fb565b602082019050919050565b6000602082019050818103600083015261246081612424565b9050919050565b7f556e617574686f72697a65640000000000000000000000000000000000000000600082015250565b600061249d600c83611a96565b91506124a882612467565b602082019050919050565b600060208201905081810360008301526124cc81612490565b9050919050565b7f4e6f742064697370757461626c65000000000000000000000000000000000000600082015250565b6000612509600e83611a96565b9150612514826124d3565b602082019050919050565b60006020820190508181036000830152612538816124fc565b9050919050565b7f4f6e6c792044414f2063616e207265736f6c7665000000000000000000000000600082015250565b6000612575601483611a96565b91506125808261253f565b602082019050919050565b600060208201905081810360008301526125a481612568565b9050919050565b7f4e6f206469737075746500000000000000000000000000000000000000000000600082015250565b60006125e1600a83611a96565b91506125ec826125ab565b602082019050919050565b60006020820190508181036000830152612610816125d4565b9050919050565b7f416c7265616479207265736f6c76656400000000000000000000000000000000600082015250565b600061264d601083611a96565b915061265882612617565b602082019050919050565b6000602082019050818103600083015261267c81612640565b9050919050565b7f4e487b7100000000000000000000000000000000000000000000000000000000600052601160045260246000fd5b60006126bd8261198e565b91506126c88361198e565b92508282019050808211156126e0576126df612683565b5b92915050565b7f53756d206d69736d617463680000000000000000000000000000000000000000600082015250565b600061271c600c83611a96565b9150612727826126e6565b602082019050919050565b6000602082019050818103600083015261274b8161270f565b9050919050565b60006040820190506127676000830185611998565b6127746020830184611998565b9392505050565b7f4e6f74207375626d697474656400000000000000000000000000000000000000600082015250565b60006127b1600d83611a96565b91506127bc8261277b565b602082019050919050565b600060208201905081810360008301526127e0816127a4565b9050919050565b7f4e6f7420617070726f7665640000000000000000000000000000000000000000600082015250565b600061281d600c83611a96565b9150612828826127e7565b602082019050919050565b6000602082019050818103600083015261284c81612810565b905091905056fea26469706673582212209b67e8d8840629b6d2c93635b8508a8fffa565dcde65c8d54da9aaf4d1c58ae464736f6c634300081c0033",
  "linkReferences": {},
  "deployedLinkReferences": {}
}